:020000040000FA
:04000000FEEF10F00F
:10060000002573207C20543A20257543207C204807
:100610003A20257525250D0A00536F6C6561646FBE
:10062000004E75626C61646F004E6F636865006CAC
:100630006C7300001250800B1B6E12501224216E3E
:1006400011AE25EF03F027EF03F028EF03F0218030
:100650002150D8B42EEF03F030EF03F043EF03F056
:100660002128D8A436EF03F038EF03F040EF03F071
:10067000000E0F6E000E106E000E116E000E126E48
:10068000118E4BEF03F0000E0F6E000E106E000E79
:10069000116E000E126E1650800B1B1A1650162487
:1006A000206E15AE56EF03F058EF03F059EF03F04C
:1006B00020802050D8B45FEF03F061EF03F074EFB7
:1006C00003F02028D8A467EF03F069EF03F071EF7F
:1006D00003F0000E136E000E146E000E156E000E69
:1006E000166E158E7CEF03F0000E136E000E146E66
:1006F000000E156E000E166E2050D8B482EF03F077
:1007000084EF03F08CEF03F02150D8A48AEF03F0BC
:100710008CEF03F096EF03F0000E0F6E000E106EDC
:10072000000E116E000E126E2EEF05F015500F0226
:10073000F3CF26F0F4CF27F026501C6E1D6A1E6AF8
:100740001F6A2750226E236A246A256A14501002F9
:10075000F3CF26F0F4CF27F026501C26000E1D22E2
:100760001E221F2227502226000E23222422252269
:1007700013501102F3CF26F0F4CF27F026501C2699
:10078000000E1D221E221F2227502226000E232289
:10079000242225221EC01FF01DC01EF01CC01DF00B
:1007A0001C6A13501002F3CF26F0F4CF27F0265026
:1007B0001C2627501D22000E1E22000E1F22145040
:1007C0000F02F3CF26F0F4CF27F026501C26275037
:1007D0001D22000E1E22000E1F221EC01FF01DC073
:1007E0001EF01CC01DF01C6A13500F02F3CF26F040
:1007F000F4CF27F026501C2627501D22000E1E2263
:10080000000E1F2215501002F3CF26F0F4CF27F070
:100810002650222627502322000E2422000E2522B5
:1008200014501102F3CF26F0F4CF27F026502226E1
:1008300027502322000E2422000E252215501102DB
:10084000F3CF26F0F4CF27F02650176E2750186EFE
:10085000196A1A6A19C01AF018C019F017C018F0EE
:10086000176A1750222618502322195024221A5092
:1008700025221CC017F01DC018F01EC019F01FC0A3
:100880001AF0190E49EF04F0D8901A3219321832C2
:100890001732E82E44EF04F0175022261850232276
:1008A000195024221A5025221EC01FF01DC01EF010
:1008B0001CC01DF01C6A205021C017F0186A1726B2
:1008C000000E1822820E1724266EFF0E1820276EA7
:1008D0007FEF04F0D89022362336243625361FAE1B
:1008E00074EF04F076EF04F077EF04F02280D890F4
:1008F0001C361D361E361F362606D8A0270624AE07
:1009000084EF04F086EF04F06AEF04F0000E206E2E
:100910001FAE8DEF04F08FEF04F0B3EF04F0FF0E85
:100920001C14176EFF0E1D14186EFF0E1E14196E88
:100930007F0E1F141A6E1750181019101A10D8B401
:10094000A4EF04F0A6EF04F0AAEF04F0010E206E6D
:10095000B3EF04F022A0AFEF04F0B1EF04F0B3EF77
:1009600004F0A6EF04F02050D8B4B9EF04F0BBEFC8
:1009700004F0DFEF04F0010E2226000E23222422D1
:10098000252225A0C6EF04F0C8EF04F0DFEF04F045
:1009900022C017F023C018F024C019F025C01AF0A7
:1009A0001A341A3219321832173217C022F018C00E
:1009B00023F019C024F01AC025F0264A272A27BEA2
:1009C000EAEF04F0275008E12628D8A0EAEF04F067
:1009D000ECEF04F0F6EF04F0000E226E000E236E32
:1009E000800E246E7F0E256E24EF05F027BE03EFE8
:1009F00005F0275006E12604D8B001EF05F003EF1B
:100A000005F00FEF05F0000E226E000E236E000EB3
:100A1000246E000E256E000E1B6E24EF05F026C01E
:100A200021F0FF0E2216FF0E23167F0E2416000E55
:100A3000251621A01EEF05F020EF05F021EF05F0AF
:100A4000248ED8902130256E1B50251222C00FF025
:100A500023C010F024C011F025C012F012002B505A
:100A6000800B386E2B502B243F6E2AAE3AEF05F0E8
:100A70003CEF05F03DEF05F03F803F50D8B443EF29
:100A800005F045EF05F05AEF05F03F28D8A44BEFED
:100A900005F04DEF05F055EF05F0000E286E000E45
:100AA000296E000E2A6E000E2B6E2A8E000E2B6E03
:100AB00062EF05F0000E286E000E296E000E2A6E01
:100AC000000E2B6E2F50800B381A2F502F24406EA3
:100AD0002EAE6DEF05F06FEF05F070EF05F0408082
:100AE0004050D8B476EF05F078EF05F08DEF05F0C3
:100AF0004028D8A47EEF05F080EF05F088EF05F0E0
:100B0000000E2C6E000E2D6E000E2E6E000E2F6E3F
:100B10002E8E000E2F6E95EF05F0000E2C6E000E3F
:100B20002D6E000E2E6E000E2F6E2C502D102E10DE
:100B30002F10D8A49EEF05F0A0EF05F0B8EF05F058
:100B4000000E286E000E296E000E2A6E000E2B6E0F
:100B5000800E2A127F0E2B1238502B1228C028F03C
:100B600029C029F02AC02AF02BC02BF0FBEF06F099
:100B70003F50D8A4BEEF05F0C0EF05F0CAEF05F076
:100B8000000E286E000E296E000E2A6E000E2B6ECF
:100B9000FBEF06F040503FC030F0316A305E000E8F
:100BA000315A7F0E3024396E000E31203A6E28C043
:100BB00034F029C035F02AC036F02BC037F0000ED3
:100BC000286E000E296E000E2A6E000E2B6E000E8F
:100BD0003B6E000E3C6E000E3D6E000E3E6E000E33
:100BE000406E2BEF06F04050D8B4F9EF05F0FBEF64
:100BF00005F012EF06F0D8903436353636363736F3
:100C0000D890283629362A362B363EAE0AEF06F023
:100C10000CEF06F00DEF06F02880D8903B363C36FE
:100C20003D363E362C50345C2D5035582E503658BB
:100C30002F503758D8A01FEF06F021EF06F02AEF0B
:100C400006F03E8C2C50345E2D50355A2E50365ABC
:100C50002F50375A402A190E406431EF06F033EF17
:100C600006F0F3EF05F03450351036103710D8B4D5
:100C70003CEF06F03EEF06F056EF06F03B8056EFF5
:100C800006F0D890283629362A362B363EAE4BEF62
:100C900006F04DEF06F04EEF06F02880D8903B3678
:100CA0003C363D363E363906D8A03A062AAE5BEFD2
:100CB00006F05DEF06F041EF06F0000E406E3EAE2E
:100CC00064EF06F066EF06F08AEF06F0FF0E3B14C5
:100CD000306EFF0E3C14316EFF0E3D14326E7F0EEF
:100CE0003E14336E3050311032103310D8B47BEFD5
:100CF00006F07DEF06F081EF06F0010E406E8AEF00
:100D000006F028A086EF06F088EF06F08AEF06F0DE
:100D10007DEF06F04050D8B490EF06F092EF06F069
:100D2000B6EF06F0010E2826000E29222A222B22D9
:100D30002BA09DEF06F09FEF06F0B6EF06F028C05F
:100D400030F029C031F02AC032F02BC033F03334F8
:100D5000333232323132303230C028F031C029F0F3
:100D600032C02AF033C02BF0394A3A2A3ABEC1EFDA
:100D700006F03A5008E13928D8A0C1EF06F0C3EFD9
:100D800006F0CEEF06F0000E3A6E3968000E286EBF
:100D9000000E296E000E2A6E000E2B6E3ABEDBEF9F
:100DA00006F03A5006E13904D8B0D9EF06F0DBEF8F
:100DB00006F0E9EF06F0000E3A6E000E396E000EF6
:100DC000286E000E296E000E2A6E000E2B6E000E8D
:100DD000386E39C03FF03FA0F0EF06F0F2EF06F0BA
:100DE000F5EF06F02A8EF6EF06F02A9ED8903F30F7
:100DF0002B6EACEF05F012003EC0D9FF3FC0DAFF0A
:100E0000DECFF6FFDDCFF7FF0800F550250AD8A4A6
:100E10000CEF07F00EEF07F01EEF08F03EC0D9FF11
:100E20003FC0DAFFDE2A000EDD22000E0001C56F92
:100E3000000EC46FC4C05EF0C5C05FF05C685D6842
:100E40003EC0D9FF3FC0DAFFDECFF6FFDDCFF7FFB0
:100E50000800F550730AD8B430EF07F032EF07F00E
:100E60004DEF07F03EC0D9FF3FC0DAFFDECF01F003
:100E7000DDCF02F02F0E036E060E046E000E066E1E
:100E8000030E056EF1EC0CF001500210D8A44BEFEC
:100E900007F04DEF07F095EF07F03EC0D9FF3FC0D8
:100EA000DAFFDECFF6FFDDCFF7FF0800F550730A5B
:100EB000D8B45DEF07F05FEF07F065EF07F0000EC5
:100EC000516E030E506E69EF07F0000E516E010E69
:100ED000506E3EC0D9FF3FC0DAFF5050DE26515061
:100EE000DD2240C0D9FF41C0DAFFDFCF42F0020E61
:100EF000DE26DFCF43F0000EDD2242C0D9FF43C023
:100F0000DAFFDECF4EF0DDCF4FF03CC00AF03DC03F
:100F10000BF04EC00CF04FC00DF02BEC0BF00AC0E4
:100F20003CF00BC03DF039EF08F03EC0D9FF3FC0A8
:100F3000DAFFDECFF6FFDDCFF7FF0800F550750AC8
:100F4000D8A4A5EF07F0A7EF07F0E8EF07F03EC041
:100F5000D9FF3FC0DAFFDE2A000EDD2240C0D9FFF4
:100F600041C0DAFFDFCF42F0020EDE26DFCF43F0D2
:100F7000000EDD2242C0D9FF43C0DAFFDECF44F0CD
:100F8000DDCF45F044C046F045C047F0486A496AA5
:100F90004A6A4B6A4C6A4D6A3CC01CF03DC01DF069
:100FA00046C01EF047C01FF048C020F049C021F0E5
:100FB0004AC022F04BC023F04CC024F04DC025F0B5
:100FC00051EC09F01CC03CF01DC03DF039EF08F0B9
:100FD0003EC0D9FF3FC0DAFFDECFF6FFDDCFF7FF1F
:100FE0000800F550250AD8A4F8EF07F0FAEF07F04B
:100FF00011EF08F03EC0D9FF3FC0DAFFDE2A000E35
:10100000DD22000E026E250E016E3CC003F03DC0D5
:1010100004F0C8EC0DF0000E3D6E010E3C6E39EF91
:1010200008F03EC0D9FF3FC0DAFFDE2A000EDD2205
:10103000000E3D6E000E3C6E39EF08F03EC0D9FF49
:101040003FC0DAFFDECFF6FFDDCFF7FF0800F55037
:10105000016E026A3CC003F03DC004F0C8EC0DF024
:101060003EC0D9FF3FC0DAFFDE2A000EDD220BEFC3
:1010700008F01200700ED36E59EC11F082EC11F0F2
:1010800099EC11F08DEC11F0949094929496000EDE
:101090000001BB6F0A0E8CEC0FF00EC0B7F00FC052
:1010A000B8F0000E136E000E146EA00E156E400EFA
:1010B000166EB7C001F0B8C002F0036A046A000EF1
:1010C00051EC0AF001C00FF002C010F003C011F0A3
:1010D00004C012F01AEC03F00FC028F010C029F081
:1010E00011C02AF012C02BF0000E2C6EC00E2D6E17
:1010F0007F0E2E6E440E2F6E2FEC05F028C0BCF034
:1011000029C0BDF02AC0BEF02BC0BFF0C00E056ED6
:10111000000E066EC10E076E000E086E42EC0FF058
:101120000009D8B496EF08F098EF08F042EF09F004
:10113000190E0001C0659FEF08F0A1EF08F0A5EFC0
:1011400008F08B808B82A7EF08F08B908B921E0E9D
:10115000C161ADEF08F0AFEF08F0B5EF08F0640E35
:10116000C9EC0FF08B86D5EF08F0280EC161BBEFFC
:1011700008F0BDEF08F0C3EF08F0370EC9EC0FF030
:101180008B86D5EF08F0320EC161C9EF08F0CBEFC6
:1011900008F0D1EF08F03C0EC9EC0FF08B86D5EFCC
:1011A00008F0000EC9EC0FF08B96000E016E000ED9
:1011B000026E000E036E3F0E046EBCC005F0BDC093
:1011C00006F0BEC007F0BFC008F0F7EC0BF0D8A0E7
:1011D000ECEF08F0EEEF08F0F5EF08F0290E000153
:1011E000B96F060EBA6F1AEF09F0000E016E000E0D
:1011F000026E800E036E3F0E046EBCC005F0BDC0D3
:1012000006F0BEC007F0BFC008F0F7EC0BF0D8A0A6
:101210000CEF09F00EEF09F015EF09F0210E0001B7
:10122000B96F060EBA6F1AEF09F0190E0001B96F07
:10123000060EBA6F090EBB6520EF09F022EF09F028
:1012400041EF09F0770E606F000E616F010E626F63
:10125000060E636FB9C064F0BAC065F0C0C066F036
:10126000676BC1C068F0696B6CEC10F0770E026EB2
:10127000000E036E1DEC11F0000E0001BB6F42EF7B
:1012800009F0BB2B0B0E5B6E260E5A6E5E0EE82E1F
:10129000FED75A2EFCD75B2EFAD74AEF08F000EFA4
:1012A00000F05DBE56EF09F058EF09F059EF09F074
:1012B0005E925DBE66EF09F05D5006E15C04D8B059
:1012C00064EF09F066EF09F06CEF09F0000E2F6E85
:1012D000010E2E6E70EF09F05CC02EF05DC02FF095
:1012E000C4C030F0C5C031F01EC032F01FC033F0B2
:1012F00020C034F021C035F022C036F023C037F0D2
:1013000024C038F025C039F0000E3B6E1F0E3A6E37
:10131000000E0001E56F03EF0AF03A06D8A03B0685
:10132000C60E3A24D96E000E3B20DA6E32C001F0B0
:1013300033C002F034C003F035C004F036C005F00D
:1013400037C006F038C007F039C008F00A0E096E41
:10135000000E0A6E000E0B6E000E0C6E000E0D6E6F
:10136000000E0E6E000E0F6E000E106E60EC0DF093
:1013700001C026F002C027F003C028F004C029F005
:1013800005C02AF006C02BF007C02CF008C02DF0D5
:101390002650300FDF6E2E06D8A02F063006D8A0BC
:1013A000310632C001F033C002F034C003F035C062
:1013B00004F036C005F037C006F038C007F039C079
:1013C00008F00A0E096E000E0A6E000E0B6E000E7B
:1013D0000C6E000E0D6E000E0E6E000E0F6E000EE7
:1013E000106E79EC0CF001C032F002C033F003C093
:1013F00034F004C035F005C036F006C037F007C041
:1014000038F008C039F03A503B10D8B40AEF0AF06F
:101410000CEF0AF03CEF0AF0325033103410351064
:101420003610371038103910D8A419EF0AF01BEF16
:101430000AF08DEF09F02FBE28EF0AF02F5006E1D9
:101440002E04D8B026EF0AF028EF0AF08DEF09F04D
:1014500031BE33EF0AF0315008E13004D8A033EF49
:101460000AF035EF0AF03CEF0AF05EB23AEF0AF00C
:101470003CEF0AF08DEF09F01CC011F01DC012F016
:10148000C60E3A24136E000E3B20146E30C015F0C9
:1014900031C016F08FEC0EF011C01CF012C01DF020
:1014A0001200096E0950D8B458EF0AF05AEF0AF04A
:1014B0007CEF0AF004BE61EF0AF05FEF0AF07CEF08
:1014C0000AF001C005F002C006F003C007F004C036
:1014D00008F0051E061E071E081E052A000E06221D
:1014E0000722082205C00BF006C00CF007C00DF063
:1014F00008C00EF084EF0AF001C00BF002C00CF03F
:1015000003C00DF004C00EF00150021003100410CF
:10151000D8A48DEF0AF08FEF0AF099EF0AF0000ED1
:10152000016E000E026E000E036E000E046E2AEFB6
:101530000BF0960E0A6EA3EF0AF00A2AD8900E322C
:101540000D320C320B32000E0B14056E000E0C1413
:10155000066E000E0D14076EFE0E0E14086E05507A
:10156000061007100810D8A4B8EF0AF0BAEF0AF076
:101570009DEF0AF0C8EF0AF00A2A010E0B26000EB2
:101580000C220D220E22D8900E320D320C320B326C
:10159000000E0B14056E000E0C14066E000E0D14DA
:1015A000076EFF0E0E14086E055006100710081087
:1015B000D8A4DDEF0AF0DFEF0AF0BCEF0AF0E7EFA6
:1015C0000AF00A06D8900B360C360D360E360DBED4
:1015D000ECEF0AF0EEEF0AF0F6EF0AF0020E0A6006
:1015E000F4EF0AF0F6EF0AF0E1EF0AF00AB0FBEFD1
:1015F0000AF0FDEF0AF0FEEF0AF00D9ED8900A32D5
:101600000AC005F0066A076A086A05C008F0076A9A
:10161000066A056A05500B1206500C1207500D128F
:1016200008500E120950D8B418EF0BF01AEF0BF057
:1016300022EF0BF004BE21EF0BF01FEF0BF022EFB7
:101640000BF00E8E0BC001F00CC002F00DC003F0C9
:101650000EC004F0120020EEE6F010EE0FF0060EC1
:10166000DBCFE3FFE806FCE20CC01AF00DC01BF074
:101670001A501B10D8A43FEF0BF041EF0BF045EFD1
:101680000BF00F0E1A6E000E1B6E1AC001F01BC07D
:1016900002F095EC10F001C01EF002C01FF05CC01B
:1016A0001CF05DC01DF01DBE58EF0BF05AEF0BF0A3
:1016B0006FEF0BF01E501C5C1D50800A0E6E1F5009
:1016C000800A0E58D8A067EF0BF069EF0BF06BEFB4
:1016D0000BF06FEF0BF01CC01EF01DC01FF01EC002
:1016E0001CF01FC01DF0C4C018F0C5C019F05EB0DA
:1016F0007CEF0BF07EEF0BF09BEF0BF08CEF0BF021
:10170000000E026E200E016E0AC003F00BC004F042
:10171000C8EC0DF01E4A1F2A18501E5C1F50800A8C
:101720000E6E1950800A0E58D8A099EF0BF09BEF5F
:101730000BF080EF0BF0000E176E000E166EBFEF71
:101740000BF01AC0F6FF1BC0F7FFF86A050EF7642E
:1017500003D00800F55005D0F6CFE1FFF7CFE2FF48
:10176000E7500E6E0E50016E026A0AC003F00BC005
:1017700004F0C8EC0DF01A4A1B2A164A172A1C500E
:10178000165C1750800A0E6E1D50800A0E58D8A0A5
:10179000CCEF0BF0CEEF0BF0A1EF0BF05EA0D3EF90
:1017A0000BF0D5EF0BF0F2EF0BF0E3EF0BF0000EC8
:1017B000026E200E016E0AC003F00BC004F0C8ECEC
:1017C0000DF01E4A1F2A18501E5C1F50800A0E6E14
:1017D0001950800A0E58D8A0F0EF0BF0F2EF0BF082
:1017E000D7EF0BF01EC00AF01FC00BF01200000E66
:1017F0000114096E000E02140A6E800E03140B6EA3
:101800007F0E04140C6E09500A100B100C10D8A493
:101810000CEF0CF00EEF0CF016EF0CF0000E016E5A
:10182000000E026E000E036E000E046E000E051414
:10183000096E000E06140A6E800E07140B6E7F0EE2
:1018400008140C6E09500A100B100C10D8A42BEFC2
:101850000CF02DEF0CF035EF0CF0000E056E000EC5
:10186000066E000E076E000E086E04AE3AEF0CF026
:101870003CEF0CF045EF0CF0016C021ED8B0022AD0
:10188000031ED8B0032A800E045608AE4AEF0CF0AF
:101890004CEF0CF055EF0CF0056C061ED8B0062A84
:1018A000071ED8B0072A800E0856000E011A000E37
:1018B000021A000E031A800E041A000E051A000EFA
:1018C000061A000E071A800E081A0550015C065011
:1018D00002580750035808500458D8B072EF0CF063
:1018E00074EF0CF077EF0CF0D89078EF0CF0D88014
:1018F000120020EE11F0070EDE6AE806FDE2095044
:101900000A100B100C100D100E100F101010D8B480
:101910008CEF0CF08EEF0CF0E0EF0CF0010E196E76
:101920009CEF0CF0D89009360A360B360C360D3683
:101930000E360F361036192A10AEA1EF0CF0A3EFB9
:101940000CF092EF0CF0D890113612361336143694
:1019500015361636173618360950015C0A500258EB
:101960000B5003580C5004580D5005580E50065893
:101970000F50075810500858D8A0C1EF0CF0C3EF13
:101980000CF0D4EF0CF00950015E0A50025A0B50D3
:10199000035A0C50045A0D50055A0E50065A0F5057
:1019A000075A1050085A1180D89010320F320E3258
:1019B0000D320C320B320A320932192EA3EF0CF021
:1019C00011C001F012C002F013C003F014C004F003
:1019D00015C005F016C006F017C007F018C008F0D3
:1019E000120001C008F002C009F003C00AF004C0F0
:1019F0000BF00506D8A00606052806E10628D8A49F
:101A000004EF0DF006EF0DF013EF0DF0000E026E77
:101A1000000E016E5FEF0DF0084A092A0A4A0B2AF0
:101A20000506D8A0060608C0F6FF09C0F7FF0800A3
:101A3000F5500009D8B41FEF0DF021EF0DF04DEF78
:101A40000DF00AC0F6FF0BC0F7FF0800F5500009C3
:101A5000D8B42DEF0DF02FEF0DF04DEF0DF0055038
:101A60000610D8B436EF0DF038EF0DF04DEF0DF055
:101A700008C0F6FF09C0F7FF0800F5CF07F00AC05D
:101A8000F6FF0BC0F7FF0800F5500718D8B44BEF6E
:101A90000DF04DEF0DF00CEF0DF008C0F6FF09C092
:101AA000F7FF0800F5CF07F00AC0F6FF0BC0F7FFFD
:101AB0000800F550075C016E026AD8A00206120009
:101AC00009500A100B100C100D100E100F101010F2
:101AD000D8B46DEF0DF06FEF0DF0B7EF0DF0010E14
:101AE000116E7DEF0DF0D89009360A360B360C36A4
:101AF0000D360E360F361036112A10AE82EF0DF06D
:101B000084EF0DF073EF0DF00950015C0A5002589C
:101B10000B5003580C5004580D5005580E500658E1
:101B20000F50075810500858D8A099EF0DF09BEFB0
:101B30000DF0ABEF0DF00950015E0A50025A0B5048
:101B4000035A0C50045A0D50055A0E50065A0F50A5
:101B5000075A1050085AD89010320F320E320D32F8
:101B60000C320B320A320932112E84EF0DF001C013
:101B700001F002C002F003C003F004C004F005C08D
:101B800005F006C006F007C007F008C008F0120014
:101B900003500410D8B4CFEF0DF0D1EF0DF0DAEF11
:101BA0000DF003500410D8A4D8EF0DF0DAEF0DF0CB
:101BB000DFEF0DF001509BEC11F02CEF0EF020EE5A
:101BC00009F00350D9260450DA22DE50DE10D8B4D2
:101BD000ECEF0DF0EEEF0DF009EF0EF020EE09F056
:101BE0000350D9260450DA2210EE03F00350E12608
:101BF0000450E222DE50E65CE650800A096EDE50B8
:101C0000800A0958D8B007EF0EF009EF0EF02CEF5C
:101C10000EF020EE03F00350D9260450DA22DECF76
:101C200005F0DDCF06F003C0D9FF04C0DAFFDECF38
:101C300007F0DDCF08F005500724D96E06500820C4
:101C4000DA6E01C0DFFF20EE03F00350D926045006
:101C5000DA22DE2A000EDD221200000E0C6E0ABE11
:101C600036EF0EF034EF0EF03CEF0EF0096C0A1E6A
:101C7000D8B00A2A010E0C6E08BE43EF0EF041EFF9
:101C80000EF049EF0EF0076C081ED8B0082A010EBE
:101C90000C1A000E0E6E000E0D6E09500A10D8B40C
:101CA00054EF0EF056EF0EF07EEF0EF0010E0B6EBD
:101CB0005EEF0EF0D89009360A360B2A0AAE63EFB3
:101CC0000EF065EF0EF05AEF0EF0D8900D360E368E
:101CD0000950075C0A500858D8A071EF0EF073EF56
:101CE0000EF078EF0EF00950075E0A50085A0D808A
:101CF000D8900A3209320B2E65EF0EF00C50D8B492
:101D000084EF0EF086EF0EF08AEF0EF00D6C0E1ED3
:101D1000D8B00E2A0DC007F00EC008F012005EA069
:101D200094EF0EF096EF0EF0A0EF0EF013C00AF055
:101D300014C00BF011C00CF012C00DF0BCEC10F090
:101D400016BEA5EF0EF0A7EF0EF0ADEF0EF015C02A
:101D50001AF016C01BF0B1EF0EF0000E1B6E000E55
:101D60001A6E000E196E000E186EC3EF0EF0000E04
:101D7000026E200E016E11C003F012C004F0C8EC18
:101D80000DF0184A192A1A50185C1950800A176E5B
:101D90001B50800A1758D8A0D0EF0EF0D2EF0EF0EB
:101DA000B7EF0EF05EB0D7EF0EF0D9EF0EF0E3EF25
:101DB0000EF013C00AF014C00BF011C00CF012C0EA
:101DC0000DF0BCEC10F013C001F014C002F095EC63
:101DD00010F01A500124116E1B500220126E1200D6
:101DE000000E096E000E0A6E000E0B6E000E0C6ED9
:101DF0000550061007100810D8B401EF0FF003EFDC
:101E00000FF039EF0FF0010E0D6E0DEF0FF0D890BF
:101E100005360636073608360D2A08AE12EF0FF0E3
:101E200014EF0FF007EF0FF0D89009360A360B3693
:101E30000C360550015C06500258075003580850F4
:101E40000458D8A026EF0FF028EF0FF031EF0FF075
:101E50000550015E0650025A0750035A0850045AB2
:101E60000980D89008320732063205320D2E14EF61
:101E70000FF009C001F00AC002F00BC003F00CC063
:101E800004F0120048EC11F0DEEC10F00009D8B4B8
:101E90004CEF0FF04EEF0FF08AEF0FF005EC10F063
:101EA000106E05EC10F00D6E05EC10F0116E05ECE7
:101EB00010F00E6E05EC10F00F6E0F50096E0A6AEE
:101EC0000D5010C00BF00C6A0B26000E0C221150A6
:101ED0000B26000E0C220E500B26000E0C22095071
:101EE0000B1807E10A500C18D8A479EF0FF07BEF1C
:101EF0000FF08AEF0FF005C0D9FF06C0DAFF11C05E
:101F0000DFFF07C0D9FF08C0DAFF10C0DFFF010EF6
:101F10008BEF0FF0000E1200166E000E116E000E09
:101F2000126E000E136E000E146E000E156EACEFE6
:101F30000FF068EC11F00150112602501222000E31
:101F40001322000E14221A0E106EF80EE82EFED781
:101F5000102EFCD700D0152A1650155CD8A0B3EF70
:101F60000FF0B5EF0FF099EF0FF011C001F012C0B4
:101F700002F013C003F014C004F01650056E066A98
:101F8000076A086AF0EC0EF001C00EF002C00FF014
:101F90001200136E640E1364D0EF0FF0D2EF0FF047
:101FA000D4EF0FF0640E136E010EBB24016E026AB3
:101FB000000E022213C003F0046A35EC11F001C0D8
:101FC00007F002C008F0000E0A6E640E096E2DECD8
:101FD0000EF007C011F008C012F011C00FF012C0CF
:101FE00010F0D89010320F32D89010320F320F50BC
:101FF000BE6E11C00FF0030E0F160F3AF00E0F1643
:10200000BD50CF0B0F10BD6E1200000E036E000E00
:10201000046E80A20EEF10F010EF10F009EF10F038
:10202000280EE82EFED780A218EF10F01AEF10F05D
:1020300029EF10F004500708016E010E026E012A0C
:1020400024EF10F0D8900236012E22EF10F002504B
:10205000031280B22EEF10F030EF10F029EF10F0E5
:10206000042A070E046437EF10F039EF10F009EF7F
:1020700010F00350120054C058F055C059F0000E33
:102080000001C36F000EC26F59EF10F052C03CF058
:1020900053C03DF0580E3E6E000E3F6E56C040F0ED
:1020A00057C041F0FCEC06F03C500001C2273D5007
:1020B000C32358C0F6FF59C0F7FF0800F5500009C8
:1020C000D8A465EF10F067EF10F046EF10F0C2C033
:1020D00052F0C3C053F01200640E00016A6F000E8C
:1020E0006B6F60C06CF061C06DF0000E706F000E21
:1020F0006F6F000E766F000E756F6C0E526E000ED5
:10210000536E62C054F063C055F06A0E566E000EF6
:10211000576E3BEC10F000016F516025D96E705185
:102120006121DA6E000EDF6E120001C003F002C002
:1021300004F09DEF10F0014A022A01C0F6FF02C030
:10214000F7FFF86A050EF76403D00800F55005D0D4
:10215000F6CFE1FFF7CFE2FFE7500009D8A4B3EFD5
:1021600010F0B5EF10F09BEF10F00350015C016E22
:1021700004500258026E1200000E106E000E0F6E18
:10218000CDEF10F00EC001F0026A0CC003F00DC0DC
:1021900004F0C8EC0DF00F4A102A0F500A24D96E33
:1021A00010500B20DA6EDF500E6E0E50D8A4DBEF0D
:1021B00010F0DDEF10F0C2EF10F01200000E016E13
:1021C000350EE82EFED700F080B2E9EF10F0EBEF0D
:1021D00010F0FCEF10F06A0EE82EFED700D080A2BF
:1021E000F4EF10F0F6EF10F0F8EF10F0010E016EC2
:1021F000350EE82EFED700F0015012002A0EF66EC2
:10220000230EF76E000EF86E00EEE6F010EE07F00B
:102210000900F5CFEEFFE550E150FAE100EEC2F023
:10222000240EEE6AE806FDE15F6A5E6A5D6A5C6A3A
:10223000000EF86E00013AEF08F028EF11F002C02E
:10224000D9FF03C0DAFFDF5077EC11F0024A032A0E
:1022500002C0D9FF03C0DAFFDF50D8A432EF11F07B
:1022600034EF11F01FEF11F0120001500302F3CF11
:1022700005F0F4CF06F001500402F3500626025098
:102280000302F350062605C001F006C002F012005A
:1022900092928992680E016EE40EE82EFED7012E0E
:1022A000FCD700D089829282350EE82EFED700F04E
:1022B0001200949C948E190EAF6EAC94B896AB8EAF
:1022C000AC98AC8AAB889D8A9E9AF28CF28E1200F2
:1022D000C282C2B26EEF11F070EF11F069EF11F02F
:1022E000C450036EC350016E03C002F01200016EB1
:1022F000ACA27DEF11F07FEF11F078EF11F001C08B
:10230000ADFF1200010E0F01386F9280010EC26EF8
:102310000E0EC16EA90EC06E12009494F90EBB6E23
:102320000C0EBD6E060EBA6E1200286E756C6C290E
:0123300000AC
:062332009282120012006D
:020000040020DA
:08000000FFFFFFFFFFFFFFFF00
:020000040030CA
:0E000000FF28183CFFBF81FF0FC00FE00F402C
:00000001FF
